:020000040800F2
:1000000020B00120AD010008451600083D1600088B
:1000100041160008B9030008552C00080000000034
:100020000000000000000000000000005D16000855
:10003000BD03000800000000591600086116000802
:10004000C7010008C7010008C7010008C701000870
:10005000C7010008C7010008C7010008C701000860
:10006000C7010008C7010008C7010008C701000850
:10007000C7010008C7010008C7010008C701000840
:10008000C7010008C7010008C70100080000000000
:10009000000000000000000000000000C701000890
:1000A000C7010008C7010008C7010008C701000810
:1000B000C7010008C7010008C7010008C701000800
:1000C000C7010008C7010008C7010008C7010008F0
:1000D000C7010008C7010008C701000800000000B0
:1000E000C7010008C7010008C701000800000000A0
:1000F000000000000000000000000000C701000830
:1001000000000000C7010008C7010008C70100087F
:1001100000000000000000000000000000000000DF
:10012000C7010008C7010008C7010008C70100088F
:10013000C7010008000000000000000000000000EF
:100140000000000000000000000000004916000848
:10015000C7010008C7010008C7010008C70100085F
:10016000C7010008C70100080000000000000000EF
:10017000000000000000000000000000000000007F
:1001800000000000C701000800000000000000009F
:10019000C7010008C7010008DFF80CD000F0D6F84E
:1001A0000048004771C7000820B00120064880477A
:1001B00006480047FEE7FEE7FEE7FEE7FEE7FEE74C
:1001C000FEE7FEE7FEE7FEE70D17000899010008CD
:1001D0002DE9F05F0546002092469B46884606467C
:1001E000814640241BE0284641464746224600F00F
:1001F0009CF853465A46C01A914110D311461846EE
:10020000224600F083F82D1A67EB01084F4622467C
:100210000120002100F07AF817EB00094E41201E62
:10022000A4F10104DFDC484631462A464346BDE8D6
:10023000F09F40EA01039B0703D009E008C9121FA1
:1002400008C0042AFAD203E011F8013B00F8013B90
:10025000521EF9D27047D2B201E000F8012B491EBC
:10026000FBD270470022F6E710B513460A46044653
:100270001946FFF7F0FF204610BD10B5044604E014
:100280000B7800F8013B03B1491C521EF8D22046FE
:1002900010BDCAB2401E10F8011F8A4202D00029C8
:1002A000F9D100207047421C10F8011B0029FBD136
:1002B000801A704730B504460020034600E05B1CFE
:1002C000934203D2E05CCD5C401BF8D030BD30B52A
:1002D00003461D783DB10A4612F8014B1CB1AC42F1
:1002E000FAD15B1CF5E7181A30BD30B50546002081
:1002F00008E00A4602E0A34207D0521C1378002B04
:10030000F9D1401C2C5C002CF3D130BD202A04DB39
:10031000203A00FA02F1002070479140C2F1200318
:1003200020FA03F3194390407047202A04DB203A57
:1003300021FA02F00021704721FA02F3D040C2F105
:100340002002914008431946704700001CB5094837
:100350000090094801900546009C06E0E06840F0E6
:10036000010394E8070098471034AC42F6D3FFF736
:1003700017FF0000543201087432010830B58C18A0
:1003800010F8012B12F00F0301D110F8013B1209F4
:1003900006D110F8012B03E010F8015B01F8015BB6
:1003A0005B1EF9D101E001F8013B521EFBD1A142D5
:1003B000E6D3002030BD0000FEE7000070470000DB
:1003C000F0B581B040F24007044643F60C46C2F255
:1003D00000070020C4F20206F86100F0C1FA31689B
:1003E000C9031DD43068C0071CBF012030603068CD
:1003F00010F4F97F32D03068C00633D430688006FC
:1004000039D4306840063FD43068000645D430689F
:10041000C0054BD43068800752D4012001B0F0BD34
:10042000C4B10546601C10D13068C003DAD530680D
:10043000C00344BF30685FEAC030D3D53068C00322
:10044000F2D4CFE73068C003CCD500F089FA401B66
:10045000A042F7D9032001B0F0BD00BF002001B0D9
:10046000F0BD00BFF86940F01000F8611020306066
:1004700030688006C5D5F86940F00800F861202092
:10048000306030684006BFD5F86940F00400F8617C
:100490004020306030680006B9D5F86940F00200AD
:1004A000F861802030603068C005B3D5F86940F04D
:1004B0000100F8614FF48070306030688007ACD57F
:1004C000F86940F02000F86102203060012001B09E
:1004D000F0BD0000B0B5044600F042FA054640F217
:1004E0001000C2F200000078611C18BF044400BF75
:1004F00000F036FA401BA042FAD3B0BD2DE9F0431C
:1005000081B040F24008C2F2000898F81820012A91
:1005100004D1022001B0BDE8F08300BF05460120F0
:1005200088F818004CF250308946FFF749FF28B18F
:10053000002188F8181001B0BDE8F0834FF0FF30BB
:10054000C9F80000286843F610470128C4F20207E2
:100550001CD128693968000221F44071396039687A
:1005600080B241F0040139603968084340F48030BA
:1005700038604CF25030FFF723FF396821F0040156
:10058000396057F8101C89053BD452E0D5E9026068
:100590003044864230D2F000841C00BF28694FF4FA
:1005A0004072C1B2032939684FEA002021F440713A
:1005B0003960396838BF82B241EA02003860386871
:1005C00020F0F8003860386820433860386840F41C
:1005D000803038604CF25030FFF7F2FE3968002866
:1005E00021F0FA01396047D1D5E90201013608440A
:1005F000864204F10804D1D3002057F8101C890565
:1006000017D557F8101C21F4007147F8101C57F843
:10061000101C41F4006147F8101C57F8101C21F41D
:10062000006147F8101C57F8101C41F4007147F89E
:10063000101C57F8101C49057FF57AAF57F8101CAD
:1006400021F4806147F8101C57F8101C41F48051C8
:1006500047F8101C57F8101C21F4805147F8101C63
:1006600057F8101C41F4806147F8101C002188F8ED
:10067000181001B0BDE8F083C9F8006057F8101CED
:100680008905BED4D5E7000043F61041C4F202014B
:10069000086840F0004200200A6070472DE9F041F0
:1006A00040F24004C2F20004277E012F04BF022062
:1006B000BDE8F0810546012020764CF25030984686
:1006C0000F461646FFF77CFE20B100212176BDE8DB
:1006D000F08100BF2A46022D43F61045C4F2020500
:1006E0001ED0012A314638460CD03ABB2A6822F483
:1006F00040722A602A682A602A6842F001022A6051
:1007000001702CE02A6822F440722A602A6842F4C0
:1007100080722A602A6842F001022A6001801EE08D
:10072000286820F440702860286840F40070286031
:10073000286840F0010028603E6010E02A6822F43A
:1007400040722A602A6842F440722A602A6842F0A5
:1007500001022A600160BFF36F8FC0F804804CF281
:100760005030FFF72DFE296821F00101296000219A
:100770002176BDE8F081000043F60440C4F2020097
:10078000C168B1F1FF3FC4BF0020704740F22311A0
:10079000C4F26751016048F6AB11CCF6EF5101602D
:1007A000C068C00F704700002DE9F04F83B000F122
:1007B000200200F13E4741F20005009207F1FF7769
:1007C000C4F2020507224FEAB726A84208BF042256
:1007D00000254FF000084FF00009042E38BF4FEA03
:1007E000B72201920AE000BF09F1010908F10208ED
:1007F000B9F1100F05F1040500F0A2800F68012285
:1008000002FA09FE17EA0E0AEED0D1F804C003225C
:100810000CF003077E1E02FA08F4012E6FEA040BA7
:1008200012D88468CE6804EA0B0406FA08F634434A
:100830008460446824EA0E06CCF3001404FA09F438
:100840002643466004E000BF032F01D103271EE0CA
:10085000C6688C6806EA0B0604FA08F42643022FE1
:10086000C66014D16FF00302009E02EA590756F8E1
:1008700007C005F01C040F220B69A2402CEA0202FB
:10088000A3401A43F251D1F804C00CF003070268E8
:1008900007FA08F302EA0B021A431CF4403F026015
:1008A000A2D0002243F644030292C4F202031A6863
:1008B00043F6004442F480421A601A68C4F201040C
:1008C00002F480420292029A29F003024FF6084C89
:1008D0002244CFF6FF7C52F80C3005F00C070F26AF
:1008E000BE40B343019E06FA07F73B4342F80C3083
:1008F000A2684B6842EA0A0743F60C4CDE0258BF76
:1009000022EA0A07A760C4F2010CDCF800209E026C
:1009100042EA0A0758BF22EA0A07CCF80070626868
:100920009E0342EA0A0758BF22EA0A076760226864
:10093000DB0342EA0A0758BF22EA0A07276053E7A7
:1009400003B0BDE8F08F00000069084018BF012027
:1009500070470000002A08BF090481617047000049
:100960004AF61820C2F201000068704740F21000F9
:100970004AF61821C2F20000C2F2010100780A68AA
:10098000104408607047000080B543F60040C4F290
:100990000200016841F400710160016841F4806166
:1009A0000160016841F480710160032000F086F865
:1009B0000F2000F005F800F027F8002080BD0000AF
:1009C00070B540F21006C2F2000640F230013278F3
:1009D000C2F200014FF47A730968B3FBF2F20446E5
:1009E000B1FBF2F1084600F0DDFC0F2C4FF00105E1
:1009F00008D838B94FF0FF3021460022002500F01A
:100A000031F87460284670BD82B0002043F6400182
:100A10000190C4F202014A6842F480424A604A6886
:100A200002F480420192019A0090086840F08050E0
:100A30000860086800F080500090009802B070478D
:100A4000002848BF704700F01F01012202FA01F19F
:100A50001C2202EAD0004EF20012CEF200028150B7
:100A60007047000010B54EF60C5CCEF2000CDCF8BE
:100A70000030C3F3022E8EF00704042C28BF042498
:100A8000BEF103034FF0FF3E0EFA04F438BF00231B
:100A9000A14399400EFA03F39A43114300F00F0269
:100AA00000F160430901043A03F5644362440028FD
:100AB00048BF02F10C03197010BD00004EF60C5136
:100AC000CEF200010A684FF6FF031A4060F30A22D3
:100AD00042F0806040F0FD7008607047002804BF5D
:100AE00001207047F0B581B00446056890F8950480
:100AF00028B9002084F89404204600F027F9032048
:100B0000B5F1A04F84F8950404BF0020A0712068BF
:100B100001F0E4FE94E80F00267C009601F036FB1D
:100B2000002840F000812068002101F0DFFE00284D
:100B300040F0F98094F804E0BEF1000F00F0EC8082
:100B40000EF0030CBEF1040F4FF0000240D30EF084
:100B5000FC03A4F190000321012500BFCE1E80F804
:100B6000A460A0F8BE608E1E80F8C860A0F8E260A5
:100B70004E1E80F8EC60A0F8066180F81011A0F815
:100B80002A110E1D013180F8A55080F8A820C0E977
:100B90002B22C0F8B42080F8C95080F8CC20C0E9DE
:100BA0003422C0F8D82080F8ED5080F8F020C0E959
:100BB0003D22C0F8FC2080F8115180F81421C0E9D2
:100BC0004622C0F82021903099423146C6D1F21E0B
:100BD000BCF1000F31D004F1140002EBC20100EBB4
:100BE0008105012300F821200021BCF1010F6B7069
:100BF0006A832971C5E9021129611ED0551C05EBD4
:100C0000C50600EB8607BCF1020F7B7000F826508A
:100C10007D833971C7E9021139610ED0911C01EB56
:100C2000C10200EB8203012500F8221000205D7054
:100C300059831871C3E902001861BEF1000F6BD02F
:100C4000BEF1040F4FF0000236D30EF0FC0003217A
:100C5000234600BFCF1E83F854728F1E83F878722C
:100C60004F1E83F8C0120D1D013183F8552283F801
:100C70005822C3E99722C3F8642283F8792283F8C3
:100C80007C22C3E9A022C3F8882283F89D2283F83E
:100C90009C7283F8A022C3E9A922C3F8AC2283F88E
:100CA000C12283F8C422C3E9B222C3F8D022903310
:100CB00081422946CED1EA1EBCF1000F2CD004F5AA
:100CC000157002EBC20300EB83070021BCF1010F9A
:100CD000797000F823203971C7E9021139611BD0FE
:100CE000531C03EBC30700EB8706BCF1020F7170C6
:100CF00000F827303171C6E9021131610CD0911C26
:100D000001EBC10200EB820300275F7000F82210A4
:100D10001F71C3E902771F6194E80F00277C0097D9
:100D200001F080FB30B1022084F89504012001B06D
:100D3000F0BD00BF00206074012084F89504206895
:100D400001F060FB002001B0F0BD0000B0B586B03E
:100D500000680024B0F1A04F0594CDE9034402944B
:100D6000019401D006B0B0BD43F630050094C4F242
:100D70000205286801A940F001002860286800F0F9
:100D80000100009000984FF4C05001900220CDE97E
:100D90000204032004900A2005900020C4F20200FF
:100DA000FFF702FD6868002140F080006860009451
:100DB0006869002240F480406861686900F48040FE
:100DC000009000984320FFF74DFE4320FFF738FEC8
:100DD00006B0B0BD002804BF012070472DE9F041E6
:100DE00043F60808C4F202080446D8F8F8030D4692
:100DF00000F00700814207D988F8F853D8F8F803C3
:100E000000F00700A84277D12068810717D5410775
:100E100005D5D8F8001041F4E051C8F800100107DA
:100E200005D5D8F8001041F46041C8F80010D8F892
:100E30000010A26821F0F0011143C8F80010C007AB
:100E400040D1D8F8F80300F00700854207D288F8AF
:100E5000F853D8F8F80300F00700A8424CD12068F6
:100E6000410707D5D8F80010E26821F4E05111439A
:100E7000C8F80010000708D5D8F80000216920F450
:100E8000604040EAC100C8F8000000F07DF8D8F8E2
:100E9000001041F67332C1F30311C0F60102515C38
:100EA00040F2300220FA01F140F21400C2F20000D8
:100EB0000068C2F200021160FFF782FD0020BDE869
:100EC000F08100BF6068811E022907D258F8081C13
:100ED00089015CBF0120BDE8F08111E0012807D144
:100EE00058F8081C89035CBF0120BDE8F08107E0C9
:100EF00058F8081C890703D40120BDE8F08100BF21
:100F0000D8F8001021F003010843C8F80000FFF7EB
:100F100027FD064641F28837D8F80000616800F0E6
:100F20000C00B0EB810F8CD0FFF71AFD801BB8428C
:100F3000F2D90320BDE8F08140F2300043F6080109
:100F4000C2F20000C4F202010068096841F683326F
:100F5000C1F38221C0F60102515CC8407047000015
:100F600040F2300043F60801C2F20000C4F2020170
:100F70000068096841F68332C1F34231C0F60102CC
:100F8000515CC8407047000010B543F60404C4F239
:100F900002046168C1F3810142F20040C0F2F40032
:100FA000DFE801F002040A0210BD00BF47F640006E
:100FB000C0F27D1010BD00BF20682168236849027F
:100FC00047F64001C0F27D1100F03F02C3F38810E4
:100FD0005CBF42F20041C0F2F401A1FB000100231A
:100FE000FFF7F6F821680222C1F3014102EB41014B
:100FF000B0FBF1F010BD0000002804BF01207047D5
:101000002DE9F04182B00446007843F60006C0079F
:10101000C4F202060CD0B06800F00C00042840F0C6
:1010200081803068800303D56068002800F0688103
:10103000207880071BD5B06810F00C0F09D0B0687D
:1010400000F00C00082840F087807068400200F132
:1010500083803068800703D5E068012840F0508124
:101060003068216920F0F80040EAC1003060207843
:10107000000713D4207840072AD4A569002D00F07A
:101080003A81B06800F00C00082840F0A580012DDE
:1010900040F00E81012002B0BDE8F08160690028B7
:1010A00000F082800020C4F247200121C0F8801E99
:1010B000FFF756FC054600BF706F8007DAD4FFF7D4
:1010C0004FFC401B0228F7D9032002B0BDE8F08195
:1010D000306C5FEAC0080AD400200190306C40F008
:1010E00080503064306C00F080500190019847F2DD
:1010F0000007C4F200073868C00547D4386840F4D8
:1011000080703860FFF72CFC054600BF3868C005CA
:101110003CD4FFF725FC401B0228F7D9032002B07E
:10112000BDE8F081B06800F00C00082803D17068B9
:1011300040023FF576AF61683068B1F5803F07D077
:10114000B1F5A02F40F09A8040F4802030603068E4
:1011500040F4803030609AE0E068002840F20000FF
:10116000C4F247205CD001210160FFF7F9FB05467E
:10117000306880073FF574AFFFF7F2FB401B022891
:10118000F6D9032002B0BDE8F08100BFA168306F3E
:10119000012905D0052955D140F004003067306F92
:1011A00040F00100306756E00020C4F247200021E3
:1011B000C0F8801EFFF7D4FB054600BF706F8007A4
:1011C0007FF558AFFFF7CCFB401B0228F6D9032070
:1011D00002B0BDE8F08100BF0027C4F2472700201D
:1011E0003866FFF7BDFB022D05460DD13068800142
:1011F00040F18A80FFF7B4FB401B02284FF0030048
:10120000F4D902B0BDE8F0813068800173D5FFF7F2
:10121000A7FB401B02284FF00300F5D9F1E700BF00
:1012200000210160FFF79CFB054600BF3068800786
:101230007FF51DAFFFF794FB401B02284FF0030022
:10124000F4D9DEE720F001003067306F002920F08C
:10125000040030677AD0FFF783FB054641F28837F8
:10126000306F800700F18480FFF77AFB401BB842A3
:10127000F6D9032002B0BDE8F08100BF20F4803031
:1012800030603068002920F4802030607AD0FFF789
:1012900067FB0546306880033FF5CAAEFFF760FB89
:1012A000401B6428F6D9032002B0BDE8F08100BFDE
:1012B0007068E16900F480028A4221D1216A00F05D
:1012C0003F028A421CD147F6C071626A0140B1EB0D
:1012D000821F15D1A16A4FF6FF73C903994300F429
:1012E0004032A1F580318A420AD1E16A00F0706093
:1012F000B0EB016F04D1002002B0BDE8F08100BF67
:10130000012002B0BDE8F08104F11C052FCD084397
:1013100040EA8210D9034FF6FF729143A1F5803164
:1013200040EA05600843706001203866FFF718FB4B
:10133000044600BF30688001DDD4FFF711FB001BBD
:1013400002284FF00300F5D95BE700BFFFF708FB69
:10135000054641F2883700BF306F800708D5FFF798
:10136000FFFA401BB8424FF00300F5D949E700BF30
:10137000B8F1000F3FF581AE306C20F08050306442
:101380007BE600BFFFF7ECFA054600BF306880033C
:101390007FF54EAEFFF7E4FA401B64284FF00300E0
:1013A000F4D92EE7411E0020B0EB116F1CBF0120C5
:1013B00070474EF21002CEF2000251604EF62351F9
:1013C000CEF20001F0230B7007219060116070478E
:1013D000002804BF0120704710B5044690F8410072
:1013E00028B9002084F84000204600F021F824208D
:1013F00084F841002068C16821F40051C160204692
:1014000000F08EF92068016921F490410161416981
:1014100021F02A014161C16841F40051C1600020FE
:101420002021606484F8411084F84210606310BD8C
:1014300080B586B041F200010068C4F201010022CB
:1014400088420592CDE903220292019202D006B0B1
:1014500080BD00BF43F630000092C4F20200436931
:1014600043F010034361436903F010030093009BB2
:101470000092036843F001030360006800F001007C
:10148000009000984FF4C06001900220CDE9020264
:10149000032004900720059001F5704001A9FFF793
:1014A00083F906B080BD00002DE9F04381B0044609
:1014B00090F84100202809D100294FF0010018BF01
:1014C000002A07D101B0BDE8F08300BF022001B0BF
:1014D000BDE8F0830020606421201D460E4684F89C
:1014E00041001746FFF73CFAA784E784A1688146CC
:1014F000B1F5805F02D1206900285DD03746002019
:10150000E28C2168002A5DD06A1C24D0002D4AD0CC
:10151000804600BF0868000608D4FFF721FAA0EB58
:101520000900A8427AD82168C868F3E717B117F80C
:10153000010B04E038F8020B00276FF35F204860CE
:10154000E08C0138E084E08C0028E3D13AE000BF71
:101550000A68120609D40A68120606D40A68120636
:101560005CBF0A685FEA0262F2D51FB117F8012B6F
:1015700005E000BF30F8022B00276FF35F224A60BE
:10158000E28C013AE284E28C002AE4D11AE000BF46
:1015900030F8022B00276FF35F224A60E28C013A99
:1015A000E284E28C72B10A68120635D5002FEFD0C2
:1015B00017F8012BF1E700BF00273046E28C2168C5
:1015C000002AA1D1086840061ED42DB3681C14D18E
:1015D000086840062AD40868400627D408684006F0
:1015E00024D4086840064FF00000F1D50DE000BF9C
:1015F0002068C1680068400618D4FFF7B1F9A0EB75
:101600000900A842F4D909E00020202184F8411003
:1016100001B0BDE8F08300BFFFF7A2F9032020214D
:1016200084F8411001B0BDE8F08300BF0020202104
:1016300084F8411001B0BDE8F0830000FEE700002F
:10164000FEE70000FEE7000040F6E000C2F2000006
:10165000007800F0D9B80000704700007047000023
:10166000FFF784B970B592B006AC20463021FEF782
:10167000F9FD002543F640000595CDE90355CDE978
:1016800001550095C4F202000168022641F0805124
:101690000160006800F080500090009847F2000060
:1016A0000095C4F20000016841F440410160006807
:1016B00000F4404000900098012006904FF48030E4
:1016C00007904FF480000D9019200E90C020CDE9B6
:1016D0000F060420119020460C96FFF78DFC18B1E0
:1016E00072B600BFFEE700BF0F20CDE901064FF440
:1016F0008050CDE9040501A803210395FFF76AFB9B
:1017000010B172B6FEE700BF12B070BD4EF6885041
:10171000CEF20000016841F47001016070470000E2
:10172000B0B50446006804F108030ECB05691943FF
:1017300025F440552A4302616269E3691143C26896
:10174000194349F20C639A431143C1604169A2698C
:1017500021F4407141F20043114340F48062C4F22D
:1017600001039A42416103D1FFF7FAFB02E000BF97
:10177000FFF7E2FBE1694FF69C7563681922C0F63A
:10178000FF75B1F5004FA0FB02011FD15A00DB0F1E
:10179000FEF71EFD48F21F51C5F2EB11A0FB01231D
:1017A0005A0905F1805302FB0300322303EBC0000A
:1017B000A0FB01014FF4F87000EA111000EB0210D9
:1017C000C1F34211084421688860B0BD9A009B0FA4
:1017D000FEF7FEFC48F21F51C5F2EB11A0FB0123FE
:1017E0005A0902FB0500322303EB0010A0FB0101A4
:1017F000F02000EA511000EB0210C1F3431108443D
:1018000021688860B0BD00002DE9F04F8BB040F634
:10181000E831C2F2000101EBC008079058F8040F4C
:10182000416982694369DB0740F05B8412EA010683
:1018300000F0578440F25C43079AC2F200034FF471
:10184000197112FB013292F826100692002940F01D
:10185000C38016F0100100F0BF80816921F01001F3
:101860008161036AC3F3434106291BD0022940F07A
:10187000AD80C3F30A10002800F0A88003F00F0128
:1018800002EB01114FEA131CD1F86831820801F50F
:10189000B47E00F08580571E032F02F003072DD27F
:1018A0001D4644E099B24FEA111CC3F38811002988
:1018B00014465CD04F1E01F00303032F144610D3CF
:1018C00021F003074FF480554459043F14604459F4
:1018D000546044599460415902F11004D160224689
:1018E000F2D1002B43D04FF4805285582746012B6C
:1018F00047F8045B30D13C4639E000BF22F00304D6
:101900004FF48052D8F80050043CAD581D60D8F810
:101910000050AD585D60D8F80050AD589D60D8F8C3
:101920000050A95803F11005D9602B46EAD12B4687
:10193000B7B3D8F800304FF480529C582B46012F93
:1019400043F8044B2CD0D8F80030022F9A586A6024
:101950001ED105F1080323E08258022B626001D1F9
:10196000083404E04FF480528258A2600C341CF01A
:1019700003012BD04FF4805280580129207025D0CC
:10198000020A0329627004BF000CA0701EE000BFB1
:10199000D8F800204FF48053D25805F10C03AA6008
:1019A0001CF003020DD0D8F800104FF48057CF5927
:1019B000012A1F7005D0390A032A597004BF390C57
:1019C0009970DEF800100844CEF80000D8F8000046
:1019D000816941F0100181613103039640F19A80E1
:1019E000D0F81818D0F81C2802EA0104B4F5803F9A
:1019F000C0F09080E1034BD5D0F8081BC0F8081B5D
:101A0000D0F8140800EA0105E8073BD007980EF06B
:101A100097FBB8B3069B0020D3F86C1141B1D8F8FE
:101A20000020D2F8102B6FF3DF428A1A01E000BFCA
:101A30000022079EC3E95B02304600210EF0ACFA9B
:101A400030460EF07DFBE8B9079940F25C424FF456
:101A50001970C2F2000211FB002000F12601D8F833
:101A600000000822C2F20802C0F8102B09780129F0
:101A700008D10699C0F8141BD0F8001B41F0802152
:101A8000C0F8001B280703D5DDE906100EF0C2F9E7
:101A9000640C3FD0079940F25C424FF41970C2F2D7
:101AA00000024FF6FF7911FB0020C0F2070900F594
:101AB000C0774FF0010A4FF432654FF0000B07E09A
:101AC00064080AF1010A07F1100705F1200521D089
:101AD000E007F5D0D8F80010681882688260D1F865
:101AE000141801EA0206F1070CD057F8041C00692B
:101AF00000EA09000A1A07985FFA8AF147E901B279
:101B00000EF04AFA3007DBD5DDE906100EF082F957
:101B1000D6E700BF0398400340F14C81D8F800009D
:101B2000D0F81818D0F81C08084086B2002E00F033
:101B3000418106980799643040F25C4201904FF46D
:101B40001970C2F2000211FB0020029026304FF4FF
:101B500010694FF0000A009005E000BF76080AF116
:101B6000010A00F02781F007F8D0D8F800000AF049
:101B70000F03D0F81028D0F834180593D940C901C4
:101B8000CBB209EB4A11089101448F681A4302EA6B
:101B90000704E2078F6041D0BAF1000F14D001981A
:101BA0004FF6FF7300EB0A1082680969C0F2070361
:101BB0001940521A0021C0E902124AF08000C1B255
:101BC00007980EF0D5F929E0069B4FF6FF72D96E03
:101BD000D0F81009C0F207021040079D0A1A002031
:101BE000C3E91B02284680210EF0C2F928460EF0F8
:101BF000A7FA98B9D8F800000821C2F20801C0F885
:101C0000101B00990978012908D10699C0F8141B06
:101C1000D0F8001B41F08021C0F8001B20069DD5A4
:101C2000069890F82600C00798D10298049600EB19
:101C30000A1939F864EFD8F80050D9E90274391B51
:101C4000714528BF7146089E0331AA1993699BB25A
:101C5000B3EB910FC0F09E804FF480504FEA910C8F
:101C600000EB0A3314E000BFD8F80000C250D9F8E6
:101C70000C10D8F800500BEB04000C44C9F8040019
:101C8000C9F80C40AA19906980B26045C0F0808004
:101C9000D9F80870A7427DD93C1B99F80210744509
:101CA00028BF744601291CD1D5F808186FF00055DB
:101CB00011F48071116808BF6FF0805501EA0501C9
:101CC000116011684FF0805708BF4FF0005739433B
:101CD0001160116921F0C0411161116941F0005199
:101CE0001161D9F804B0A708594635D0791E0329E7
:101CF0005A461AD327F003025D4600BF2968D8F878
:101D00000000043AC1506868D8F80010C850A868AC
:101D1000D8F80010C850E868D8F8006005F1100144
:101D20000D46F050EAD1089E0A4617F0030513D07D
:101D3000114651F8047B6046D8F800C0012D4CF8DC
:101D40000370844608D05168D8F80070022DF9500D
:101D500014D102F1080100BF14F003053FF487AF6E
:101D60000A78012D3FF480AF4878032D42EA002223
:101D700004BF887842EA004276E700BF9768D8F847
:101D8000005002F10C01EF5014F00305E8D16EE7AA
:101D9000D9F80870049EA7424FF410693FF6DEAEF2
:101DA000D5F83408059A012191408843C5F83408D4
:101DB000D4E600BFDDF80C90DDF818A05FEAC9405A
:101DC00040F1EC80D8F800004FF480514161D0F828
:101DD000042840F6405122F00102C0F20301C0F88D
:101DE000042800220992099A01328A42099240D8B5
:101DF0000269002A18D4099A01328A42099238D815
:101E00000269002A10D4099A01328A42099230D814
:101E10000269002A08D4099A01328A42099228D814
:101E20000269B2F1FF3FDEDC002209924FF48462C6
:101E30000261099A01328A4209921AD8026992060D
:101E400017D5099A01328A42099212D8026992067C
:101E50000FD5099A01328A4209920AD8026992067C
:101E600007D5099A01328A42099202D8026992067C
:101E7000DFD400220A920A9A01328A420A923FD89B
:101E80000269002A18D40A9A01328A420A9237D883
:101E90000269002A10D40A9A01328A420A922FD883
:101EA0000269002A08D40A9A01328A420A9227D883
:101EB0000269B2F1FF3FDEDC00220A9210220261C9
:101EC0000A9A01328A420A921AD80269D20617D5B2
:101ED0000A9A01328A420A9212D80269D2060FD5B2
:101EE0000A9A01328A420A920AD80269D20607D5B2
:101EF0000A9A01328A420A9202D80269D206DFD4D3
:101F00004FF00061C0F80019C0F8001B00214FF627
:101F1000FF32C0F81019C0F80829C0F8101BC0F82B
:101F2000082BBAF8153013F4F06F22D000F51263C5
:101F300001274FF0904500BF1E68013705EAE6769D
:101F40001E60D3F80062FCB2B6F1FF3F4FF090463E
:101F5000C8BF0026C3F8006219619A60C3F8101266
:101F6000C3F80822DAF814602033C6F3C336A64259
:101F7000E2D2D0F81C1841F00111C0F81C18092158
:101F8000C0F814180121C0F810180AF164004FF4C9
:101F90000071FEF767F907980EF01CF85FEA8940B8
:101FA00040F18A80D8F800004FF4005141610DF0F3
:101FB000DDF9D8F80010D1F80828920702D44FF4C0
:101FC000105052E045F24032CFF6277243F20053F0
:101FD0000244C0F20C039A4202D24FF4705044E023
:101FE00041F64062CFF61B7244F240230244C0F235
:101FF0000F039A4202D24FF4605036E0A0F574020B
:1020000044F68073A2F51052C0F212039A4203D232
:102010004FF4505029E000BFA0F183724DF22063CD
:10202000A2F5E742C0F213039A4203D24FF44050A4
:102030001BE000BF4BF26062CFF6E5624EF2603308
:102040000244C0F216039A4202D24FF430500CE020
:102050004DF20032CFF6CE6247F240730244C0F236
:102060001B039A4268D24FF42050CA6840F25C4386
:1020700022F47052CA60CA68C2F200031043C860FA
:10208000D1F8040840F48070C1F804080820C2F2B6
:102090000800C1F8100B079A4FF4197012FB0030BA
:1020A00090F82600012807D1C1F814ABD1F8000B35
:1020B00040F08020C1F8000B5FEA892014D45FEA69
:1020C000C92019D45FEA09501ED4B9F1FF3F26DDBB
:1020D0005FEA497005D5D8F80000416842681143AD
:1020E00041600BB0BDE8F08FD8F800004FF400114C
:1020F00041615FEAC920E5D5D8F800004FF48011AE
:1021000041615FEA0950E0D5D8F800004FF4006162
:10211000416107980DF0FEFFB9F1FF3FD8DCD8F818
:1021200000004FF00041416107980DF0E3FF5FEAC6
:102130004970D0D4D5E700BF45F6C032CFF6B362C0
:1021400049F2C0130244C0F221039A42FFF437AFB0
:10215000A0F1B77247F22053A2F55852C0F23803EB
:102160009A4203D24FF400507FE700BF45F2E042AD
:10217000CFF6596249F6E0430244C0F241034FF4FE
:10218000C0509A4238BF4FF4E0506EE782B002F47C
:102190007F42B2F5807F40F09980826B4FF6BF732B
:1021A00022F480328263C268CFF6BD731A40C260E7
:1021B000029BC268DBB222F44012012BC26003D141
:1021C000C26842F48012C26000220092009A01327A
:1021D0000092009AB2F1706F00F2F0800269002A5A
:1021E00021D4009A01320092009AB2F1706F00F28D
:1021F000E5800269002A16D4009A01320092009A02
:10220000B2F1706F00F2DA800269002A0BD4009AF2
:1022100001320092009AB2F1706F00F2CF80026931
:10222000B2F1FF3FD2DC0A220092009AAAB100BFAD
:10223000009A013A0092009A7AB1009A013A00920B
:10224000009A52B1009A013A0092009A2AB1009A7B
:10225000013A0092009A002AEAD1026942F0010292
:102260000261009A01320092009AB2F1706F00F29E
:10227000A5800269D20720D0009A01320092009A0C
:10228000B2F1706F00F29A800269D20715D0009AFD
:1022900001320092009AB2F1706F00F28F800269F1
:1022A000D2070AD0009A01320092009AB2F1706F00
:1022B00000F284800269D207D3D14FF0000C01F400
:1022C0007F01B1F5803F40F099808FE0C26842F015
:1022D0004002C26000220192019A01320192019AE9
:1022E000B2F1706F72D80269002A1ED4019A0132CD
:1022F0000192019AB2F1706F68D80269002A14D471
:10230000019A01320192019AB2F1706F5ED80269AE
:10231000002A0AD4019A01320192019AB2F1706F37
:1023200054D80269B2F1FF3FD6DC0A220192019A29
:10233000AAB100BF019A013A0192019A7AB1019AB9
:10234000013A0192019A52B1019A013A0192019A1D
:102350002AB1019A013A0192019A002AEAD102694E
:1023600042F001020261019A01320192019AB2F136
:10237000706F2BD80269D2071DD0019A01320192E9
:10238000019AB2F1706F21D80269D20713D0019A75
:1023900001320192019AB2F1706F17D80269D20727
:1023A00009D0019A01320192019AB2F1706F0DD8F1
:1023B0000269D207D7D14FF0000C09E04FF0030CAF
:1023C00001F47F01B1F5803F18D10FE04FF0030C0D
:1023D000826B13F47F4F14BF22F4803242F48032B8
:1023E000826301F47F01B1F5803F07D1816841F03C
:1023F00006018160816841F020018160604602B081
:10240000704700000146D0F8000E20F00300C1F82C
:10241000000ED1F8040840F002020020C1F80428A0
:10242000704700002DE9F04F86B0C3F3074516460C
:102430008E460021C0F80411C0F80811C0F80C1134
:10244000C0F81011C0F81411C0F81811C0F81C1110
:10245000C0F82011C0F82411C0F82811C0F82C11C0
:10246000C0F83011C0F83411C0F83811C0F83C1170
:1024700045B1816B21F400118163816B41F400212E
:1024800011E000BFD0F8041841F00201C0F80418B0
:10249000816B41F400118163816B21F40021816320
:1024A000816B21F4802106F47F4281630021B2F523
:1024B000807FC0F8001E07D1D0F80028B1EB1E6F56
:1024C00008D1C0F8002809E0D0F8001841F0030155
:1024D00002E000BF42F00101C0F8001800210491A1
:1024E0000499013104910499B1F1706F52D80169D6
:1024F00000291ED40499013104910499B1F1706F3F
:1025000048D80169002914D404990131049104992F
:10251000B1F1706F3ED8016900290AD404990131E4
:1025200004910499B1F1706F34D80169B1F1FF3FA2
:10253000D6DC002104914FF48461016104990131DA
:1025400004910499B1F1706F24D8016989061DD5F1
:102550000499013104910499B1F1706F1AD801699D
:10256000890613D50499013104910499B1F1706F72
:1025700010D80169890609D504990131049104999B
:10258000B1F1706F06D801698906D7D44FF0000AFF
:1025900002E000BF4FF0010A0021059105990131C9
:1025A00005910599B1F1706F4ED8016900291ED4CB
:1025B0000599013105910599B1F1706F44D8016910
:1025C000002914D40599013105910599B1F1706F75
:1025D0003AD8016900290AD4059901310591059974
:1025E000B1F1706F30D80169B1F1FF3FD6DC002145
:1025F0000591102101610599013105910599B1F10C
:10260000706F21D80169C90620D50599013105915E
:102610000599B1F1706F17D80169C90616D50599EA
:10262000013105910599B1F1706F0DD80169C906A5
:102630000CD50599013105910599B1F1706F03D859
:102640000169C906D7D401E04FF0010A5FFA8EF99B
:102650004FF00008B9F1000FC0F81088C0F81488D6
:10266000C0F81C8800F00D81CDF80CA0CDE9015E0A
:10267000D0F800194FF0006404EA11114FF67F35CD
:10268000B9F1010BC0F80019C0F81089C0F8085959
:1026900074D0A9F1020103290BF0030A04D201212D
:1026A000BAF1000F40D169E000962BF0030700F566
:1026B000186600234FF0904C4FF67F324FF0000E1B
:1026C00056F8601C0EF1040E0CEAE17146F8601C2D
:1026D00046F8503C46F8582C56F8401C77450CEA12
:1026E000E17146F8401C46F8303C46F8382C56F864
:1026F000201C0CEAE17146F8201C46F8103C46F814
:10270000182C31680CEAE17131603361B26006F176
:102710008006D5D1009E0EF101014FF67F354FF0B6
:102720000064BAF1000F29D000F510634F01B446E0
:10273000DE594FF0904202EAE67603EB4111DE519A
:10274000664600274FF67F33BAF1010F0F618B60A9
:1027500014D00E6ABAF1020F02EAE67266460A6205
:102760000F638B620AD00A6C4FF0904303EAE27267
:102770000A6400220A654FF67F328A64D0F8001B93
:10278000BBF1000F04EA1111C0F8001B4FF000016B
:10279000C0F8101BC0F8085BDDE9015EDDF80CA095
:1027A0006FD0A9F1020103290BF0030C04D201211F
:1027B000BCF1000F3BD164E0A94600962BF0030565
:1027C00000F5386600234FF090474FF67F32002126
:1027D00056F8604C043107EAE47446F8604C46F859
:1027E000503C46F8582C56F8404C8D4207EAE474A9
:1027F00046F8404C46F8303C46F8382C56F8204C09
:1028000007EAE47446F8204C46F8103C46F8182CC9
:10281000346807EAE47434603361B26006F180061C
:10282000D6D1009E01314D46BCF1000F29D000F5F4
:1028300030634F013446DE594FF0904202EAE676AB
:1028400003EB4111DE51264600274FF67F33BCF1E2
:10285000010F0F618B6014D00E6ABCF1020F02EA07
:10286000E67226460A620F638B620AD00A6C4FF04A
:10287000904303EAE2720A6400220A654FF67F324F
:102880008A64D0F810181EF47F0F21F48071C0F80C
:1028900010186FF08041C0F81880416103D1816940
:1028A00041F010018161816943F60002C8F23C02E7
:1028B000114316F47F0F816103D0816941F0080153
:1028C0008161012D05D1816941F0804141F0040110
:1028D0008161504606B0BDE8F08F00000146806877
:1028E00020F0010200208A6070470000B0B5044665
:1028F000C068002920F0C040E06000F09980012904
:1029000040F0B080E0680A2540F00050E0600A2006
:10291000FDF7E0FD54F8140FC00740F09C800A203A
:10292000FDF7D8FD2068C00740F09E800A20FDF723
:10293000D1FD2068C00740F0A5800A20FDF7CAFD40
:102940002068C00740F0AC800A20FDF7C3FD206876
:10295000C00740F0B3800A20FDF7BCFD2068C00727
:1029600040F0BA800A20FDF7B5FD2068C00740F0AE
:10297000C1800A20FDF7AEFD2068C00740F0C88086
:102980000A20FDF7A7FD2068C00740F0CF800A208D
:10299000FDF7A0FD2068C00740F0D6800A20FDF7B3
:1029A00099FD2068C00740F0DD800A20FDF792FD08
:1029B0002068C00740F0E4800A20FDF78BFD206806
:1029C000C00740F0EB800A20FDF784FD2068C007B7
:1029D00040F0F2800A20FDF77DFD2068C00740F03E
:1029E000F9800A20FDF776FD2068C00740F00081DD
:1029F0000A20FDF76FFD2068C00740F007810A201C
:102A0000FDF768FD2068C00740F00E810A20FDF741
:102A100061FD2068C00740F016810A20FDF75AFDCD
:102A20002068C825A5F1C800B0FA80F04009B0BD03
:102A3000E0680A2540F08040E0600A20FDF74AFD8A
:102A400054F8140FC00706D00A20FDF743FD206894
:102A5000C00711D11425A5F1C800B0FA80F04009D3
:102A6000B0BD00BF0120B0BD1425A5F1C800B0FA6B
:102A700080F04009B0BD00BF0A20FDF72BFD2068A3
:102A8000C00707D11E25A5F1C800B0FA80F04009A3
:102A9000B0BD00BF0A20FDF71DFD2068C00707D1AB
:102AA0002825A5F1C800B0FA80F04009B0BD00BFEC
:102AB0000A20FDF70FFD2068C00707D13225A5F1D8
:102AC000C800B0FA80F04009B0BD00BF0A20FDF791
:102AD00001FD2068C00707D13C25A5F1C800B0FA68
:102AE00080F04009B0BD00BF0A20FDF7F3FC20686C
:102AF000C00707D14625A5F1C800B0FA80F040090B
:102B0000B0BD00BF0A20FDF7E5FC2068C00707D173
:102B10005025A5F1C800B0FA80F04009B0BD00BF53
:102B20000A20FDF7D7FC2068C00707D15A25A5F178
:102B3000C800B0FA80F04009B0BD00BF0A20FDF720
:102B4000C9FC2068C00707D16425A5F1C800B0FA08
:102B500080F04009B0BD00BF0A20FDF7BBFC206833
:102B6000C00707D16E25A5F1C800B0FA80F0400972
:102B7000B0BD00BF0A20FDF7ADFC2068C00707D13B
:102B80007825A5F1C800B0FA80F04009B0BD00BFBB
:102B90000A20FDF79FFC2068C00707D18225A5F118
:102BA000C800B0FA80F04009B0BD00BF0A20FDF7B0
:102BB00091FC2068C00707D18C25A5F1C800B0FAA8
:102BC00080F04009B0BD00BF0A20FDF783FC2068FB
:102BD000C00707D19625A5F1C800B0FA80F04009DA
:102BE000B0BD00BF0A20FDF775FC2068C00707D103
:102BF000A025A5F1C800B0FA80F04009B0BD00BF23
:102C00000A20FDF767FC2068C00707D1AA25A5F1B7
:102C1000C800B0FA80F04009B0BD00BF0A20FDF73F
:102C200059FC2068C00707D1B425A5F1C800B0FA47
:102C300080F04009B0BD00BF0A20FDF74BFC2068C2
:102C4000C0077FF4EAAEBE25A5F1C800B0FA80F057
:102C50004009B0BDFEE700004EF60C50BFF34F8FA9
:102C6000CEF200000168042201F4E061C0F2FA52E1
:102C700011430160BFF34F8F00BF00BF00BF00BF13
:102C8000FAE7000084B040F20005C2F200051446E5
:102C90000E46074647A0162101222B460EF0C6FE1F
:102CA000384629460EF08EFE48A0072101222B4609
:102CB0000EF0BCFE304629460EF084FE45A00721EA
:102CC00001222B460EF0B2FE01A80A300A21012C87
:102CD000ADF80E1052DB4CF6CD4C49F69A1248F284
:102CE0001F5E44F6D35841F25979CCF6CC4CC1F66C
:102CF0009912C5F2EB1EC1F26208CDF2B71942F289
:102D0000107500BFA4FB0C13D90801EB8103A4EBE1
:102D1000430343F030030A2C00F8013C36D3A1FBF7
:102D2000023707EB8703A1EB430141F03001642C2C
:102D300000F8021C2ED3A4FB0E135909A1FB023785
:102D400007EB8703A1EB430141F03001B4F57A7F33
:102D500000F8031C22D3A4FB08139909A1FB023736
:102D6000A4FB093607EB8703A1EB430141F03001D7
:102D700000F8041DAC424FEA5634C3D240F20001C1
:102D8000C2F200010EF01EFE00F02AF84FF0FF31F3
:102D900006E000BF6FF0010102E000BF6FF002012A
:102DA000084440F20001C2F200010EF00BFE00F0F8
:102DB00017F800BF2A2A2A20617373657274696F3D
:102DC0006E206661696C65643A2000002C2066699B
:102DD0006C6520002C206C696E6520000020704717
:102DE000FEE7000040F6F033C2F20003187801213C
:102DF000002802BF0120197070471A4612F8980F78
:102E000001281EBF02201170704793F8300101287D
:102E100040F09A8093F8C801012840F09B8093F815
:102E20006002012840F09C8093F8F802012840F0ED
:102E30009D8093F89003012840F09E8093F8280429
:102E4000012840F09F8093F8C004012840F0A08042
:102E500093F85805012840F0A18093F8F005012867
:102E600040F0A28093F88806012840F0A38093F8F0
:102E70002007012840F0A48093F8B807012840F00B
:102E8000A58093F85008012840F0A68093F8E80840
:102E9000012840F0A78093F88009012840F0A8801D
:102EA00093F8180A012840F0A98093F8B00A012885
:102EB00040F0AA8093F8480B012840F0AB8093F8CB
:102EC000E00B012840F0AC8093F8780C012840F02A
:102ED000AD8093F8100D012840F0AE8093F8A80D56
:102EE000012840F0AF8093F8400E012840F0B080F8
:102EF00093F8D80E012840F0B18093F8700F0128A4
:102F000040F0B28041F208001A5C012A40F0B28021
:102F10004FF48550185C012840F0B08041F2381021
:102F20001A5C012A40F0B08041F2D0101A5C012AEC
:102F300040F0AE8041F268201A5C012A0FBF0020E9
:102F40001A1820201170704703F598720320117031
:102F5000704700BF03F5E47204201170704700BF92
:102F600003F5187205201170704700BF03F53E721B
:102F700006201170704700BF03F5647207201170BE
:102F8000704700BF03F5856208201170704700BFCD
:102F900003F5986209201170704700BF03F5AB621A
:102FA0000A201170704700BF03F5BE620B2011703C
:102FB000704700BF03F5D1620C201170704700BF4D
:102FC00003F5E4620D201170704700BF03F5F7624E
:102FD0000E201170704700BF03F505620F201170BD
:102FE000704700BF03F6E80210201170704700BF61
:102FF00003F5186211201170704700BF03F6182204
:1030000012201170704700BF03F52B62132011705E
:10301000704700BF03F6483214201170704700BF9C
:1030200003F53E6215201170704700BF03F6784229
:1030300016201170704700BF03F551621720117000
:10304000704700BF03F6A85218201170704700BFE8
:1030500003F5646219201170704700BF03F6D8624F
:103060001A201170704700BF03F577621B201170A2
:10307000704700BF1A181C201170704703F5855265
:103080001D201170704700BF1A181E201170704764
:103090001A181F201170704741F63850C0F6010011
:1030A00070470000F0B581B040F6F03604460025C8
:1030B000C2F20006002703E09837B7F5985F0FD0FB
:1030C000F05D0128F8D1F0198168A142F4D1017BAB
:1030D000F5550129F0D14068FFF7E4FFECE700BFA8
:1030E00001B0F0BD41F6A050C0F6010070470000ED
:1030F00041F6B250C0F60100704700008168CB88ED
:1031000041F201015A1A41F6BC51192AC0F60101D7
:1031100014D8DFE802F06C0D4B534373353B3F731B
:103120004F2F63735F477373735723737373295BF5
:103130000831496800295CD160E000BF49F601020E
:103140009A1A032A5AD8DFE802F003554D5100BFFE
:103150008831496800294CD150E000BF30314968BE
:10316000002946D14AE000BF68314968002940D1B2
:1031700044E000BF5831496800293AD13EE000BF21
:1031800038314968002934D138E000BF40314968FE
:1031900079BB33E04831496859BB2FE02031496899
:1031A00039BB2BE08031496819BB27E010314968F1
:1031B000F9B923E050314968D9B91FE0183149689D
:1031C000B9B91BE02831496899B917E070314968ED
:1031D00079B913E07831496859B90FE0603149682D
:1031E00039B90BE09831496819B907E0A03149684D
:1031F00021B10847903149680029FAD142F205000F
:103200007047000000230A4641F60471C4F204032B
:1032100041F6447CC0F6010198421046C0F6010C0C
:1032200008BF61460BF0F0BD80B582B0019042F25C
:10323000D430C2F2000001A901224FF47A73FEF7E4
:1032400033F9019802B080BD2DE9F047B2B0806833
:103250000169D0F814904A1C022A02D3B1F1011F6F
:103260001ED1C068A0F1210111F1200F12D340F648
:10327000F03AC2F2000A982100FB01A414F8980D5C
:10328000012807D1207B88B142F2050032B0BDE8A9
:10329000F08700BF42F2090032B0BDE8F08700BFFE
:1032A00042F2080032B0BDE8F08700BF09F101002A
:1032B000022811D20DF00CF90346187804F1140815
:1032C0002F2824D1587810BB43F20522C0F6010202
:1032D00022A84021434622E0A9F1210010F1200F4D
:1032E0007AD3982009FB00A010F8981D002973D00C
:1032F00005460DF0EDF82B4613F8541B002904BFCA
:1033000054230346187804F114082F28DAD043F226
:103310000322C0F6010222A84021CDF800800EF061
:10332000EBF804F1540000210DF024F900285CD4DE
:10333000054622A801210DF01DF9B0F1FF3F51DD36
:10334000064602A9284680220DF08AF901280DDBE5
:10335000024602AF304639460DF074FA2846394627
:1033600080220DF07DF902460028F3DC28460CF09F
:10337000C3FF30460CF0C0FFFFF734FDD0B39821F7
:1033800000FB01A5B9F1FF3118BF494645E9250108
:103390000021226905F88C1C012105F8041CA5F107
:1033A000840145F8882C0446084641464022FCF733
:1033B00064FFA5F1440022A94022FCF75EFF40F61D
:1033C0007C10C2F2000044F202018460018042F2EB
:1033D000010032B0BDE8F08742F21A0032B0BDE819
:1033E000F08700BF28460CF087FF42F2020032B09F
:1033F000BDE8F08722A80DF01DFA42F20C0032B0B1
:10340000BDE8F08710B58068C068A0F1210111F116
:10341000200F15D340F6F031C2F20001982200FBD4
:10342000021414F8980D01280AD1207B012804F118
:10343000540009D10DF064F96068FFF733FE05E030
:1034400042F2090010BD00BF0DF0F4F9606840F6CB
:103450007C11C2F20001886044F203000880002061
:10346000207042F2010010BDF0B581B08068C068E4
:10347000B0F1011F18BF10F1010007D10CF0D4FF0B
:1034800040B142F2020001B0F0BD00BF42F20800BC
:1034900001B0F0BD40F6F034C2F2000420464FF413
:1034A0009851FCF7DFFE0DF013F8002100250AF01B
:1034B0007DF8982600200EE00746681CB0F1200534
:1034C00029461CBF01210546202801EA070008BF44
:1034D0005FEAC77118D005FB06F1615C0129EBD1E9
:1034E00005FB0642117B0129E6D192F894100746AC
:1034F0000029E2D15168012702F1540082F894704A
:103500000AF054F8D9E700BF42F2010001B0F0BD63
:103510002DE9F04192B00446054654F80C0F4EF6E2
:10352000F0580068CEF2000800F11B01B1F5007FF1
:103530002ED2296908440D2100F80C1CE9680A689C
:1035400001320A604D21C0F2410140F80B1C4E21AE
:10355000C0F2550140F8071C4621C0F2410140F875
:10356000031C4321C0F25401C0F801105521C0F2E0
:103570005201C0F805104521C0F25201C0F80910EF
:103580000021A0F80D10E86801681A31016010E010
:1035900042F6906043F2E911C0F60100C0F6010165
:1035A0004FF454720DF098FFD8F80000C00700D017
:1035B00000BE2068006800F11301B1F5007F25D23C
:1035C00029690844092100F80C1CE9680A680132DD
:1035D0000A604B21C0F2650140F80B1C7921C0F252
:1035E000620140F8071C6F21C0F2610140F8031C22
:1035F0007221C0F26401C0F801100021A0F805108A
:10360000E86801681231016011E000BF42F6906085
:1036100043F2E911C0F60100C0F601014FF4547203
:103620000DF05AFFD8F80000C00700D000BE206897
:1036300052270068C0F2490700F11F01B1F5007F71
:1036400030D2296908440F2100F80C1CE9680A6887
:1036500001320A605621C0F2450140F80B1C52218C
:10366000C0F2530140F8071C4921C0F24F0140F855
:10367000031C4E21C0F25F01C0F801105321C0F2BB
:103680005401C0F805104E21C0F24701C0F80D10DA
:103690000021C0F80970A0F81110E86801681E3117
:1036A000016010E042F6906043F2E911C0F60100BB
:1036B000C0F601014FF454720DF00EFFD8F800006F
:1036C000C00700D000BE01AE06F11A002821FCF7A9
:1036D000C9FD5320C0F24500CDE901074120C0F2E9
:1036E0004C0003905F20C0F24E0004905520C0F2C1
:1036F0004D0005904220C0F2450006905220B11DB9
:10370000ADF81C00002000BF31F8062C72B106EBAA
:103710004002538883B1928892B331F8082B043069
:10372000002AF1D1411EFF290BD32FE001460130C1
:10373000FF2906D32AE000BF40F001010230FF2933
:1037400024D2D5E903230029126803EB02012FD00C
:1037500002EB40020132B2F5007F35D201F80C0CC9
:10376000226845001368A1F10B00591C116001A9E2
:103770002A46FCF75EFD20680168294422E000BF6C
:1037800040F0020140F00300FF29DAD342F69060D6
:1037900043F2D011C0F60100C0F6010140F226321A
:1037A0000DF09AFED8F80000C00730D000BE2EE021
:1037B000501CB0F5007F19D2002001F80C0C2068D5
:1037C00001680131016022E042F6906043F2D011BD
:1037D000C0F60100C0F601014FF44D720DF07CFE01
:1037E000D8F80000C00712D000BE10E042F690608A
:1037F00043F2D011C0F60100C0F6010140F22D32B3
:103800000DF06AFED8F80000C00700D000BE2046C8
:103810000AF0AEF842F21901002818BF002108464C
:1038200012B0BDE8F08100002DE9F04182B081685E
:1038300005468889C98841F21402914205F10C04B9
:103840004DF2024118D1884240D12168ADF8020002
:103850004FF6FF70ADF8040008684EF6F0580022ED
:10386000B0F5007FCEF200088DF8062034D140F28A
:103870000520086076E000BF884227D120680068F4
:1038800000F11101B1F5007F80F0A480296908449E
:10389000082100F80C1CE9680A6801320A6050210E
:1038A000C0F2520140F80B1C4F21C0F2440140F815
:1038B000071C5521C0F2430140F8031C5421C0F8F5
:1038C0000110E86801681031C9E000BF42F206004B
:1038D00002B0BDE8F08100BFC0F50072A0F10C0697
:1038E000052A334628BF05222969B6F5007F28BF7F
:1038F0004FF40073C01A00F2F31040F2FF13984324
:10390000301A08440DF10201FCF793FCEA681168D3
:1039100001F11603481DB3F5007F106022D22A6919
:103920000826131803F80C6CEE6837680137376007
:103930005027C0F2520743F80B7C4F2723F8077C2F
:103940004427575445F20051C4F2003143F8041C97
:103950004FF4A841115000201871E8680168103137
:10396000016010E042F6906043F2E911C0F60100F8
:10397000C0F601014FF454720DF0AEFDD8F800000E
:10398000C00700D000BE2068006800F11101B1F549
:10399000007F35D229690844082100F80C1CE96829
:1039A0000A6801320A605021C0F2520140F80B1C33
:1039B0004F21C0F2440140F8071C5521C0F24301D9
:1039C00040F8031C5421C0F80110E8680168103168
:1039D000016026E042F6906043F2E911C0F6010072
:1039E000C0F601014FF454720DF076FD4EF6F05022
:1039F000CEF200000068C00732D000BE30E000BF49
:103A000042F6906043F2E911C0F60100C0F60101F0
:103A10004FF454720DF060FDD8F80000C00700D0DC
:103A200000BE20680168B1F5007F03D140F201219A
:103A300015E000BFA1F10C0213462869B2F5007F22
:103A400028BF4FF40073C91A01F2F31140F2FF13BB
:103A50009943511A00224254E8680168013101601B
:103A6000204609F085FF002002B0BDE8F08100008B
:103A70002DE9F04F87B004468068C1686FF45C4060
:103A800010FA81F20A2A4AF60A001BD800260625F7
:103A90004FF001094FF000084FF0000B4FF0000A03
:103AA000DFE812F02B000C001801260018011801A5
:103AB00022001801180118012B0000BF04254FF047
:103AC000010A18E08AB24DF641439A4240F0028161
:103AD00000260A254FF001084FF0000B4FF00009B7
:103AE0004FF0000A09E000BF01264FF6FF7502E023
:103AF00008254FF0010B4FF0000904F10C0002689B
:103B000001901068ADF80810B0F5007F06D140F2C2
:103B100002201060ADF8085026E000BFC0F500722A
:103B2000A0F10C07022A3B4628BF02222169B7F503
:103B3000007F28BF4FF40073C01A00F2F31040F268
:103B4000FF139843381A084402A9FCF772FBE26895
:103B5000ADF8085010680230B0F5007F106003D156
:103B600040F20221116025E0C0F50072A0F10C07BF
:103B7000022A3B4628BF02222169B7F5007F28BFF1
:103B80004FF40073C01A00F2F31040F2FF13984391
:103B9000381A084402A9FCF74CFBE06801680231BE
:103BA000B1F5007F016005D140F2012101607EBBCB
:103BB0001EE000BFA1F10C0213462069B2F5007FA0
:103BC00028BF4FF40073C91A01F2F31140F2FF133A
:103BD0009943511A4654E068016801F101010160FE
:103BE00036B1B1F5007F13D140F2012125E000BFCD
:103BF000B8F1000F72D00168019D0022B1F5007F7D
:103C0000CDE904220392029276D14FF4047115E0BB
:103C1000A1F10C0213462069B2F5007F28BF4FF4D2
:103C20000073C91A01F2F31140F2FF139943511ABC
:103C300000224254E06801680131019D01600021C9
:103C400002910168B1F5007F1CD14FF40171016050
:103C50000168B1F5007F36D0A1F10C02134620694E
:103C6000B2F5007F28BF4FF40073C91A01F2F311B7
:103C700040F2FF139943511A00224254E068016850
:103C8000013122E0C1F50072A1F10C07042A3B4684
:103C900028BF04222069B7F5007F28BF4FF40073C6
:103CA000C91A01F2F31140F2FF139943791A08443B
:103CB00002A9FCF7BEFAE0680168043101600168FE
:103CC000B1F5007FC8D140F201210160284609F01A
:103CD0004FFE002007B0BDE8F08F00BFBBF1000F22
:103CE00028D00022B1F5007F0392029230D1019DCD
:103CF0004FF40271A2E700BFC1F50072A1F10C07F9
:103D0000102A3B4628BF10222069B7F5007F28BF44
:103D10004FF40073C91A01F2F31140F2FF139943F3
:103D2000791A084402A9FCF784FAE06801681031A6
:103D300084E700BFB9F1000F28D001680022B1F577
:103D4000007F029230D1019D4FF4017176E700BFF0
:103D5000C1F50072A1F10C07082A3B4628BF0822D2
:103D60002069B7F5007F28BF4FF40073C91A01F22C
:103D7000F31140F2FF139943791A084402A9FCF7A2
:103D800058FAE068019D0168083157E7BAF1000F61
:103D900028D0019D0022B1F5007FADF8082023D185
:103DA00040F202214AE700BFC1F50072A1F10C0701
:103DB000042A3B4628BF04222069B7F5007F28BFAC
:103DC0004FF40073C91A01F2F31140F2FF13994343
:103DD000791A084402A9FCF72CFAE068019D0168F1
:103DE00004312BE7019D2AE7C1F50072A1F10C0710
:103DF000022A3B4628BF02222069B7F5007F28BF70
:103E00004FF40073C91A01F2F31140F2FF13994302
:103E1000791A084402A9FCF70CFAE068016802313B
:103E20000CE70000F0B585B08168CB68A3F12102F2
:103E300012F1200F04D242F20901084605B0F0BD8C
:103E400040F6F035C2F20005982203FB025212F848
:103E5000987D012F20D10C696FF45C4111FA84F632
:103E600000F10C070A2E4AF60A011BD8DFE806F01B
:103E70000888067606069A0606064E00DDE700BFAD
:103E800039684FF001120B68B3F5007F009244D1FE
:103E90004FF401700860EAE042F20901084605B0FB
:103EA000F0BD00BFA6B24DF64144A642C5D192F87E
:103EB0005440002103910291E4B1982103FB015188
:103EC000A1F1430300211D78C1EB411121448DB1C3
:103ED0005C78C1EB4111294464B19E78C1EB41117A
:103EE00021443EB1DC78C1EB41113144002C03F197
:103EF0000403E8D13B68009119689268B1F5007F2E
:103F0000019240F095804FF40470AFE039689268F8
:103F10000B68B3F5007F0092BAD0C3F50072A3F12D
:103F20000C05042A2E4628BF04220169B5F5007F3E
:103F300028BF4FF400769B1B03F2F31340F2FF16E9
:103F4000B343EB1A0B44694604461846FCF771F973
:103F5000E16808680430086089E000BF117B002434
:103F6000002908BF1469396800250B680195B3F56D
:103F7000007F00941CD14FF40270086077E000BF0E
:103F80003968127B0B684FF44056002A18BF43F281
:103F90000106B3F5007FADF8006029D140F20220A0
:103FA000086064E002F11401384608F065FD5EE047
:103FB000C3F50072A3F10C05082A2E4628BF08227B
:103FC0000169B5F5007F28BF4FF400769B1B03F213
:103FD000F31340F2FF16B343EB1A0B446946044651
:103FE0001846FCF726F9E1680868083008603EE0EA
:103FF000C3F50072A3F10C05022A2E4628BF022247
:104000000169B5F5007F28BF4FF400769B1B03F2D2
:10401000F31340F2FF16B343EB1A0B446946044610
:104020001846FCF706F9E1680868023008601EE0EF
:10403000C1F50072A1F10C05102A2E4628BF1022EE
:104040000369B5F5007F28BF4FF40076891B01F2A4
:10405000F31140F2FF16B143691A0B446946044656
:104060001846FCF7E6F8E368186810301860384620
:1040700009F07EFC0021084605B0F0BDF0B583B024
:10408000044654F80C1F054608680622B0F5007F68
:104090004DF60147019207D1251D4FF401700860CC
:1040A000ADF80A702CE000BFC0F50072A0F10C065C
:1040B000042A334628BF042255F8101FB6F5007FA6
:1040C00028BF4FF40073C01A00F2F31040F2FF1340
:1040D0009843301A084401A9FCF7ABF855F8041CC2
:1040E000ADF80A7008680430B0F5007F086007D1A9
:1040F00040F202200860791CADF80A102CE000BFE5
:10410000C0F50072A0F10C06022A334628BF022235
:104110002968B6F5007F28BF4FF40073C01A00F27B
:10412000F31040F2FF139843301A08440DF10A01CE
:10413000FCF77FF821687A1C0868ADF80A20023085
:10414000B0F5007F086007D140F202200860F91C3A
:10415000ADF80A102CE000BFC0F50072A0F10C060B
:10416000022A334628BF02222968B6F5007F28BFFD
:104170004FF40073C01A00F2F31040F2FF1398439B
:10418000301A08440DF10A01FCF753F82168FA1CB3
:104190000868ADF80A200230B0F5007F086007D14A
:1041A00040F202200860B91DADF80A102CE000BFF3
:1041B000C0F50072A0F10C06022A334628BF022285
:1041C0002968B6F5007F28BF4FF40073C01A00F2CB
:1041D000F31040F2FF139843301A08440DF10A011E
:1041E000FCF727F82168BA1D0868ADF80A200230EC
:1041F000B0F5007F086007D140F20220086007F1A7
:104200000A01ADF80A102DE0C0F50072A0F10C060D
:10421000022A334628BF02222968B6F5007F28BF4C
:104220004FF40073C01A00F2F31040F2FF139843EA
:10423000301A08440DF10A01FBF7FBFF216807F172
:104240000A020868ADF80A200230B0F5007F086065
:1042500008D140F20220086007F14001ADF80A10D1
:1042600028E000BFC0F50072A0F10C06022A334618
:1042700028BF02222968B6F5007F28BF4FF40073DB
:10428000C01A00F2F31040F2FF139843301A0844AA
:104290000DF10A01FBF7CDFF216807F14002086824
:1042A000ADF80A200230B0F5007F086002D140F27C
:1042B00002201CE0C0F50072A0F10C07022A3B4668
:1042C00028BF02222968B7F5007F28BF4FF400738A
:1042D000C01A00F2F31040F2FF139843381A084452
:1042E0000DF10A01FBF7A5FF21680868023008609C
:1042F000204609F03DFB002003B0F0BD2DE9F04160
:104300008168C968A1F1210212F1200F38D340F66B
:10431000F032C2F20002982301FB032616F8981D22
:1043200001292DD1417800F10C0401292CD000295C
:1043300053D1054606F1540000210CF01BF940F260
:104340003401C2F200010028086049D43269E968EA
:1043500002F10C030B6029692F46B2F5FA7F28BFE2
:104360004FF4FA720CF07CF9054620EAE0707861AF
:10437000204609F0FDFA3069854224DA2DE000BFBD
:1043800042F20900BDE8F08101698046C0693269E6
:10439000A0F10C0740F23400C2F200000068D21B0A
:1043A000B2F5007F28BF4FF400720CF059F90546B2
:1043B000012804DB2046C8F8145009F0D9FA306906
:1043C000E919814209D340F23404C2F200042068A2
:1043D0000BF092FF4FF0FF3020600020BDE8F0812D
:1043E00042F20200BDE8F0812DE9F0418368D9680E
:1043F0001A695B694F1C022F06D3B1F1011F1CBF64
:1044000042F20800BDE8F081591C00F10C080129B6
:1044100002F1010100F29080022980F0098140F64A
:10442000F03340F668370022C2F20003C2F2000700
:10443000002105E002F59862B2F5985F00F08A82EB
:104440009E5C012E03EB020601D1B56865B196F8BA
:104450009850012D10D1D6F8A0506DB9D6F89C50C7
:1044600047F82150013107E0756847F821500131C4
:1044700096F89850012DEED096F83051012D02D1CA
:10448000D6F8385165B196F8C851012D12D1D6F839
:10449000D0517DB9D6F8CC5147F82150013109E00F
:1044A000D6F8345147F82150013196F8C851012D02
:1044B000EDD000BF96F86052012D02D1D6F86852B7
:1044C00065B196F8F852012D12D1D6F800537DB996
:1044D000D6F8FC5247F82150013109E0D6F8645271
:1044E00047F82150013196F8F852012DEDD000BF68
:1044F00096F89053012D02D1D6F8985385B196F8CD
:104500002854012D7FF496AFD6F83054002D7FF457
:1045100091AFD6F82C6447F8216001318AE700BFDB
:10452000D6F8945347F82150013196F82854012DBC
:104530007FF480AFE8E700BF40F6F03540F6683C16
:104540000229C2F20005C2F2000C80F0378100227D
:10455000002105E002F59862B2F5985F00F0FA815B
:10456000AF5C012F05EB020706D1BE689E4203D166
:104570007E684CF82160013197F89860012E08D1CF
:10458000D7F8A0609E4204D1D7F89C604CF8216017
:10459000013197F83061012E08D1D7F838619E4279
:1045A00004D1D7F834614CF82160013197F8C86123
:1045B000012E08D1D7F8D0619E4204D1D7F8CC6142
:1045C0004CF82160013197F86062012E08D1D7F8CC
:1045D00068629E4204D1D7F864624CF821600131D0
:1045E00097F8F862012E08D1D7F800639E4204D1F3
:1045F000D7F8FC624CF82160013197F89063012EE6
:1046000008D1D7F898639E4204D1D7F894634CF848
:104610002160013197F82864012E9BD1D7F83064CE
:104620009E4297D1D7F82C744CF82170013191E754
:1046300040F6F03540F668360023C2F20005C2F2BB
:104640000006002106E000BF03F59863B3F5985F0C
:1046500000F08081EF5C012F05EB03070ED1BC68F1
:1046600064B93C7B002C4FF4405418BF43F2010462
:10467000A24203D17C6846F82140013197F8984066
:10468000012C11D1D7F8A04074B997F8A440002CA0
:104690004FF4405418BF43F20104A24204D1D7F8AA
:1046A0009C4046F82140013197F83041012C11D14E
:1046B000D7F8384174B997F83C41002C4FF4405476
:1046C00018BF43F20104A24204D1D7F8344146F89E
:1046D0002140013197F8C841012C11D1D7F8D041C0
:1046E00074B997F8D441002C4FF4405418BF43F2EA
:1046F0000104A24204D1D7F8CC4146F8214001314F
:1047000097F86042012C11D1D7F8684274B997F834
:104710006C42002C4FF4405418BF43F20104A242F3
:1047200004D1D7F8644246F82140013197F8F842A5
:10473000012C11D1D7F8004374B997F80443002C29
:104740004FF4405418BF43F20104A24204D1D7F8F9
:10475000FC4246F82140013197F89043012C11D1D9
:10476000D7F8984374B997F89C43002C4FF4405401
:1047700018BF43F20104A24204D1D7F8944346F88B
:104780002140013197F82844012C7FF45DAFD7F820
:104790003044002C7FF458AF97F83444002C4FF489
:1047A000405418BF43F20104A2427FF44DAFD7F842
:1047B0002C7446F82170013146E700BF0026002125
:1047C00006E000BF06F59866B6F5985F00F0C28077
:1047D000AF5D012F05EB060710D1BC689C420DD1DF
:1047E0003C7B002C4FF4405418BF43F20104A2421A
:1047F00004D17C684CF82140013100BF97F8984003
:10480000012C13D1D7F8A0409C420FD197F8A440B7
:10481000002C4FF4405418BF43F20104A24205D1CA
:10482000D7F89C404CF82140013100BF97F8304147
:10483000012C13D1D7F838419C420FD197F83C4155
:10484000002C4FF4405418BF43F20104A24205D19A
:10485000D7F834414CF82140013100BF97F8C841E6
:10486000012C13D1D7F8D0419C420FD197F8D441F5
:10487000002C4FF4405418BF43F20104A24205D16A
:10488000D7F8CC414CF82140013100BF97F8604285
:10489000012C13D1D7F868429C420FD197F86C4293
:1048A000002C4FF4405418BF43F20104A24205D13A
:1048B000D7F864424CF82140013100BF97F8F84224
:1048C000012C13D1D7F800439C420FD197F8044331
:1048D000002C4FF4405418BF43F20104A24205D10A
:1048E000D7F8FC424CF82140013100BF97F89043C3
:1048F000012C13D1D7F898439C420FD197F89C43D1
:10490000002C4FF4405418BF43F20104A24205D1D9
:10491000D7F894434CF82140013100BF97F8284460
:10492000012C7FF44FAFD7F830449C427FF44AAF5C
:1049300097F83444002C4FF4405418BF43F201045C
:10494000A2427FF43FAFD7F82C744CF821700131AC
:1049500038E700BFD8F80020136803EB810704375D
:10496000B7F5007F1CD207698D003B4443F80C1C4F
:1049700017680446391D1160A3F1080240F668313A
:10498000C2F2000110462A46FBF753FCE0680168BA
:1049900029440160404608F0EBFF0020BDE8F081AB
:1049A00042F6906043F20921C0F60100C0F6010111
:1049B00040F213320CF090FD4EF6F050CEF20000B3
:1049C0000068C007E6D000BE404608F0D1FF0020D6
:1049D000BDE8F0812DE9F0418EB005468068C068E1
:1049E000A0F1210111F1200F3AD340F6F031C2F2CB
:1049F0000001982200FB021717F8980D01282FD10B
:104A0000387B4FF4405105F10C08002818BF43F2E1
:104A100001014FF0000208BF3A69BB68ADF8081009
:104A2000D8F80010CDF82A300B68FE8900204FF02E
:104A30000114B3F5007F0194ADF80A00CDE903201D
:104A4000CDE90500CDE907000990ADF82800ADF8E3
:104A50002E600C900D9009D14FF40D7022E000BF34
:104A600042F209000EB0BDE8F08100BFC3F500724C
:104A7000A3F10C06342A314628BF34222869B6F542
:104A8000007F28BF4FF40071591A01F2F31140F270
:104A9000FF139943711A084401A9FBF7CAFBE9689F
:104AA000086834304EF6F056086007F114014046AD
:104AB000CEF2000607F0E0FFD8F800000068411CC5
:104AC000B1F5007F0AD229690844002100F80C1CC6
:104AD000E86801680131016010E000BF42F69060B3
:104AE00043F2E911C0F60100C0F6010140F249327B
:104AF0000CF0F2FC3068C00700D000BED8F800000F
:104B00000068411CB1F5007F0AD2296908440021E0
:104B100000F80C1CE86801680131016010E000BF7A
:104B200042F6906043F2E911C0F60100C0F60101BF
:104B300040F249320CF0D0FC3068C00700D000BE13
:104B4000D8F800000068411CB1F5007F0AD229693D
:104B50000844002100F80C1CE8680168013101607C
:104B600010E000BF42F6906043F2E911C0F6010088
:104B7000C0F6010140F249320CF0AEFC3068C007CB
:104B800000D000BE404608F0F3FE00200EB0BDE8A5
:104B9000F081000010B5044654F80C1F0A6802F1B9
:104BA0000803B3F5007F15D203691A44012342F8C4
:104BB0000C3C0B6804330B604FF0011142F8081CE9
:104BC000C068016804310160204608F0D1FE002071
:104BD00010BD00BF42F6906043F20921C0F601000B
:104BE000C0F6010140F213320CF076FC4EF6F050A4
:104BF000CEF200000068C007E6D000BE204608F0F4
:104C0000B7FE002010BD00002DE9F04F87B005462B
:104C10008068C068B0F1011F18D105F10C080BF0D5
:104C200057FC01A90BF092FD4FF0000B4FF400165A
:104C300090B902984FF400194FF0000A80B1019921
:104C4000039AA1FB006BA2FB019A09E042F2080063
:104C500007B0BDE8F08F00BF4FF400194FF0000A15
:104C6000D8F8001003220868ADF81020B0F5007FD6
:104C700006D140F2022008600221ADF810102BE0AE
:104C8000C0F50072A0F10C04022A23464FF002077F
:104C900028BF3A462969B4F5007F28BF4FF4007356
:104CA000C01A00F2F31040F2FF139843201A084490
:104CB00004A9FBF7BEFAE968ADF810700868023085
:104CC000B0F5007F086007D140F2022008600021A3
:104CD000ADF810102AE000BFC0F50072A0F10C077B
:104CE000022A3B4628BF02222969B7F5007F28BF68
:104CF0004FF40073C01A00F2F31040F2FF13984310
:104D0000381A084404A9FBF794FAE96800220868F5
:104D1000ADF810200230B0F5007F086006D140F2F7
:104D200002200860CDE9046B2AE000BFC0F50072E4
:104D3000A0F10C07022A3B4628BF02222969B7F5D9
:104D4000007F28BF4FF40073C01A00F2F31040F246
:104D5000FF139843381A084404A9FBF76AFAE96874
:104D6000CDF814B0086804960230B0F5007F0860F2
:104D700006D14FF402700860CDE9049A2CE000BF20
:104D8000C0F50072A0F10C07082A3B4628BF082294
:104D90002969B7F5007F28BF4FF40073C01A00F2ED
:104DA000F31040F2FF139843381A084404A9FBF7A4
:104DB00040FAEA68CDF814A01068CDF810900830D9
:104DC000B0F5007F106007D14FF402714FF0FF3053
:104DD0001160049026E000BFC0F50072A0F10C073E
:104DE000082A3B4628BF08222969B7F5007F28BF5B
:104DF0004FF40073C01A00F2F31040F2FF1398430F
:104E0000381A084404A9FBF714FAE8684FF0FF3297
:104E1000016804920831B1F5007F016002D14FF4BE
:104E200001711BE0C1F50072A1F10C07042A3B4699
:104E300028BF04222869B7F5007F28BF4FF400730C
:104E4000C91A01F2F31140F2FF139943791A084489
:104E500004A9FBF7EEF9E868016804314EF6F05456
:104E600001F11F02CEF20004B2F5007F016033D2DF
:104E7000286908440F2100F80C1CE9680A6801320F
:104E80000A604B21C0F2650140F80B1C7921C0F289
:104E9000620140F8071C6F21C0F2610140F8031C59
:104EA0007221C0F26401C0F801102021C0F2460155
:104EB000C0F805106C21C0F26101C0F8091073211F
:104EC000C0F26801C0F80D100021A0F81110E868C8
:104ED00001681E3101600FE042F6906043F2E91173
:104EE000C0F60100C0F601014FF454720CF0F4FA60
:104EF0002068C00700D000BED8F80000006800F1AC
:104F00000901B1F5007F15D229690844042100F890
:104F10000C1CE9680A6801320A607621C0F26F0150
:104F200040F80B1C6C2140F8071CE8680168083148
:104F300001600FE042F6906043F2E911C0F6010013
:104F4000C0F601014FF454720CF0C6FA2068C00795
:104F500000D000BE404608F00BFD002007B0BDE8C1
:104F6000F08F0000F0B591B08168CA68A2F121000D
:104F700010F1200F20D340F6F030C2F20000982349
:104F800002FB030616F8982D012A15D14F69791CEA
:104F9000022915D20BF09CFA0346187806F1140C7E
:104FA0002F2827D1587828BB43F20522C0F60102EA
:104FB00001A84021634625E042F2090011B0F0BD8E
:104FC000A7F1210111F1200F30D3982107FB010037
:104FD00010F8981D51B304460BF07AFA234613F8E3
:104FE000541B002904BF54230346187806F1140CFF
:104FF0002F28D7D043F20322C0F6010201A8402196
:10500000CDF800C00CF078FA06F1540401AD20464A
:1050100029460BF06DFB204629464022FBF72DF96F
:10502000B76042F2010011B0F0BD00BF42F21A00B9
:1050300011B0F0BDF0B581B0806840F6F034C2F236
:105040000004C58820464FF49851FBF70BF941F254
:105050000200854230D10BF03BFA0021002508F018
:10506000A5FA982600200EE00746681CB0F120053E
:1050700029461CBF01210546202801EA070008BF78
:105080005FEAC77118D005FB06F1615C0129EBD11D
:1050900005FB0642117B0129E6D192F894100746E0
:1050A0000029E2D15168012702F1540082F894707E
:1050B00008F07CFAD9E700BF42F2010001B0F0BD70
:1050C00010B540F23404C2F200042068002804D471
:1050D0000BF012F94FF0FF30206040F67C10C2F266
:1050E000000000210180C0E9011140F6F030C2F259
:1050F00000004FF49851FBF7B5F80AF021F942F29D
:10510000010010BD2DE9F04140F67C16C2F2000608
:105110007168A1F1210212F1200F3BD340F6F03269
:10512000C2F20002982301FB032515F8981D0129FE
:1051300030D1417800F10C0481B3C76942692B6911
:10514000A7F10C01D71B994240F234081F4488BFD5
:1051500007F10C02C2F2000852B1D8F80030016920
:10516000074618460BF06EFBF8692B69A0F10C019D
:10517000994224D3D8F800000BF0BEF84FF0FF306E
:105180006968C8F8000044F2020030800020B16075
:10519000BDE8F08142F20900BDE8F08105F154005C
:1051A00001210BF0E7F940F23401C2F200010028BE
:1051B00008600BD420682969026811440160204608
:1051C00008F062FB0020BDE8F08100BF42F202005F
:1051D000BDE8F0812DE9F04F83B04178012907D077
:1051E00011B90C3008F050FB002003B0BDE8F08F7F
:1051F0004469342C04D242F2020003B0BDE8F08FBF
:10520000816806690D69B6F804B0D6F80890B6F85A
:105210002A80FDF7E7FDB8B340F6F0318246C2F2CE
:10522000000198200AFB0010B5F1FF37A0F19801AA
:1052300018BF2F46029143F20101ABEB0101B1FA15
:1052400081F14909A0F1840540E925A740F8889C2F
:1052500020F88A8C00F88C1C28464021FBF702F8C5
:10526000342C17D146F26450C0F27200C5F8070022
:1052700046F6467046F24E51029EC6F26C40C2F2AD
:105280007701C5E9001054E042F20C0003B0BDE81C
:10529000F08F00BF96F83400A4F13501B0EB510F48
:1052A00088BF4808C2B2002A4FF0000C3CD006F17B
:1052B000360300214FF0C00E4FF0020804E000BF9B
:1052C000013A03F1020330D013F8017C1E7857EA4B
:1052D00006242AD07F2C05D84C1C3F2C25D86F548F
:1052E0002146EDE7072E0DD8A1F13E0616F1400F3D
:1052F0001BD34EEA94146E1868F39F176C54023156
:105300007770DDE7A1F13D0010F1400F0DD33009BA
:10531000E0306854A0096E1868F39F1068F39F1777
:1053200003317070B770CBE70021029E05F801C011
:10533000B76806F154080BF0CBF8791E11F1030F92
:10534000034617D8A7F1210010F1200F02D2002048
:105350000CE000BF982240F6F03701FB02F0C2F2E9
:105360000007385C002818BF01FB0270002818BF36
:1053700000F1540318782F2801D15878F0B143F286
:105380000322C0F601024046402100950CF0B4F81B
:10539000307B40F67C140128C2F2000407D140465D
:1053A0000BF0E0F87068A06044F202002080C4F8BE
:1053B00004A0002003B0BDE8F08F00BF43F2052237
:1053C000C0F60102404640212B46DFE72DE9F047B9
:1053D000A2B04178012907D011B90C3008F054FA75
:1053E000002022B0BDE8F08781684DF607430A69C6
:1053F0009A42F5D1C968A1F1210212F1200F59D3C7
:1054000040F6F038C2F20008982201FB028616F836
:10541000981D01294ED14169002965D007690DF118
:10542000480A17F8015B50463F21FAF71BFF002D91
:105430004FF0000E4FF0000142D04FF0C00C4FF083
:10544000020903E0013D07F1020739D03A787B7881
:1054500052EA032034D07F2806D8481C3F282FD892
:105460000AF801200146EDE7072B0FD8A1F13E0312
:1054700013F1400F24D34CEA90100AEB010369F3B7
:105480009F120AF8010002315A70DBE7A1F13D04D6
:1054900014F1400F14D31B09E03380090AEB010417
:1054A0000AF8013069F39F1069F39F1203316070AD
:1054B000A270C7E742F2090022B0BDE8F08700BF42
:1054C000B5680AF801E08DF887E00BF001F8691E75
:1054D00011F1030F03461AD8A5F1210010F1200F96
:1054E00008D200200FE000BF42F2020022B0BDE867
:1054F000F08700BF982201FB02F018F80000002896
:1055000018BF01FB0280002818BF00F1540318786F
:105510002F2801D1587848B343F20322C0F6010284
:1055200002A84021CDF800A00BF0E6FF06F15404DC
:1055300002AD204629460BF0DBF806F1140012A953
:105540004022FAF79AFE204629464022FAF795FEB5
:10555000706840F67C11C2F20001886044F20700D6
:105560000880002022B0BDE8F08700BF43F205228A
:10557000C0F6010202A812AB4021D5E7F0B583B016
:1055800015464A781F46531E0A2B4FF0FF323AD871
:105590008C88DFE803F0071B11383838383825319C
:1055A000150000BF4A88E1B2130AD2B2CDE9005714
:1055B0000AF004FE26E000BFE1B20AF0FDFD09E0BA
:1055C0008A78E1B20AF01AFE1CE000BF8A78E1B2E4
:1055D0000AF0F0FD296808700120386012E000BF71
:1055E0004A882E683F68130AE1B2D2B2CDE900675B
:1055F0000AF006FE06E000BF4A88E1B2130AD2B202
:105600000AF0FAFD0022104603B0F0BD2DE9F0418A
:1056100082B045F22D760D4604464FF00008C0F6E4
:105620000006D4E91631994210D2606ECA08825C35
:1056300001F00707FA40D20730D0226E0131013A5B
:105640008B42E1652266F1D1194600E0226E606D61
:10565000E36E0844B0FBF3F1002A01FB13033DD0D5
:10566000D4E919016365C96AC4F85C80B2EBC10F63
:1056700088BFCA00A265FAF7F5FD204631462246EA
:10568000012305F011FE0028CBD0E26E0021C4E911
:105690001611226602B0BDE8F08100BF626DE36EB4
:1056A0001144B1FBF3F202FB13112960226ED4E91D
:1056B0001613013A013300BF8B42C4E9173209D2F5
:1056C000DF08C75D03F00706F740013AFF0703F163
:1056D0000103F1D1002002B0BDE8F08143F22027A0
:1056E00042F66B41C0F6010706A0C0F601014FF477
:1056F000307200970BF0F0FE6FF01B0002B0BDE8B7
:10570000F08100BF25733A25643A6572726F723A70
:10571000204E6F206D6F7265206672656520737014
:10572000616365203078257825730A00D0E9152C4F
:10573000C36E891A1944B1FBF3F202FB13116145E0
:105740000AD2406E01F00702C9084FF0010C435C19
:105750000CFA02F21A434254002070472DE9F04F30
:105760008BB00C46096811F1030F31D88246C06E28
:10577000089281426AD2DAF8680099468769D4E9CA
:10578000012385683B445E1EB6FBF7F8E36808FB1F
:1057900007FBCDF800B0A847012863DA10B10BB0C1
:1057A000BDE8F08FE268B9F1000F07D008FB176081
:1057B000089D4FF0FF31864229600DD11046DAF87E
:1057C0006810FF22896AFAF746FD4FF0FF3020602B
:1057D00000200BB0BDE8F08FD4E900104FF00009B5
:1057E0000DF12408CDE90610059200BFABEB0903CB
:1057F0001F46082B28BF0827079806994844CDE97B
:105800000010504600212A46CDF80880039700F08A
:10581000C9F800280ED105983A4600EB0901404628
:105820004646FAF747FD58B9B944D945B046DDD3E5
:10583000E068C4E758BF6FF053000BB0BDE8F08FCD
:105840006FF053000BB0BDE8F08F00BF42F6F3508D
:1058500042F66B41C0F60100C0F60101B422FDF72B
:1058600011FA00BF42F6C00042F66B41C0F60100DB
:10587000C0F60101B822FDF705FA00002DE9F04F4E
:1058800083B0DDF830B00E461BF102010746CDE9CA
:10589000012302D0F86E834578D2B86EDDF83C80E3
:1058A000DDF83490C06908EB0901814262D8B8F193
:1058B000000F4FF0000A47D00E9D03E0B8EB04083C
:1058C000254445D03268934508D17068814505D399
:1058D000B96E896A0B18994512D300BF501C3DD18F
:1058E000B86EC6F800B08269816AB9FBF2F3C6F8F7
:1058F00008A003FB02F003FB0212706091452DD259
:10590000A0EB09025418A04538BF4446F168A9EB42
:105910000000084429462246FAF78BFCD6E901012B
:10592000BA6EA144A9EB0000926A814288BF084682
:105930009042B060C2D1DDE9012338463146FFF71D
:105940000DFF0028BAD08246504603B0BDE8F08F64
:105950004FF0000A504603B0BDE8F08F42F2A87045
:1059600042F66B41C0F60100C0F6010140F2071299
:10597000FDF788F942F6D44042F66B41C0F60100CB
:10598000C0F60101EA22FDF77DF900BF42F68E5014
:1059900042F66B41C0F60100C0F60101E922FDF7B5
:1059A00071F900002DE9F04F85B08146806E119E9F
:1059B0000F9FC0699646F219824206D8D9F86C004A
:1059C0008B460E990138884204D26FF0530005B01F
:1059D000BDE8F08F002E00F0A78010989A46029044
:1059E000581E0190CDF80CE019E000BF03EB02084F
:1059F000454538BFA846DEF80C10029C381A014411
:105A000020464246FAF715FC0E99DDF80CE04444B6
:105A100002944744A6EB0806002E00F08580BBF1F7
:105A2000000F354610D0DBF80000354681420BD11F
:105A3000DBE90102354613189F4205D2C51B6BD91D
:105A4000AE4238BF354600BFDEF80000814209D1C2
:105A5000DEE9010213189F4204D2C31BC6D99D423E
:105A600028BF1D46564533D2D9F86C00049601383C
:105A7000884269D3D9F86800019A44693A442244BB
:105A8000B7FBF4F5B846B2FBF4F7C3696743CEF849
:105A90000010D0F804C0866A9F4238BF3B4605FB21
:105AA000143305FB04F2CEF80420B34238BF1E467F
:105AB000DEF80C30CEF808600096E047012837DAAF
:105AC000DDF80CE0049E0E9900284746A4D02CE097
:105AD000D9F8680042699642C6D3B7FBF2F303FBDC
